ARM Linker, 5.03 [Build 76] [MDK-ARM Standard]

==============================================================================

Section Cross References

    startup_stm32f40_41xxx.o(RESET) refers to startup_stm32f40_41xxx.o(STACK) for __initial_sp
    startup_stm32f40_41xxx.o(RESET) refers to startup_stm32f40_41xxx.o(.text) for Reset_Handler
    startup_stm32f40_41xxx.o(RESET) refers to stm32f4xx_it.o(i.NMI_Handler) for NMI_Handler
    startup_stm32f40_41xxx.o(RESET) refers to stm32f4xx_it.o(i.MemManage_Handler) for MemManage_Handler
    startup_stm32f40_41xxx.o(RESET) refers to stm32f4xx_it.o(i.BusFault_Handler) for BusFault_Handler
    startup_stm32f40_41xxx.o(RESET) refers to stm32f4xx_it.o(i.UsageFault_Handler) for UsageFault_Handler
    startup_stm32f40_41xxx.o(RESET) refers to stm32f4xx_it.o(i.SVC_Handler) for SVC_Handler
    startup_stm32f40_41xxx.o(RESET) refers to stm32f4xx_it.o(i.DebugMon_Handler) for DebugMon_Handler
    startup_stm32f40_41xxx.o(RESET) refers to stm32f4xx_it.o(i.PendSV_Handler) for PendSV_Handler
    startup_stm32f40_41xxx.o(RESET) refers to stm32f4xx_it.o(i.SysTick_Handler) for SysTick_Handler
    startup_stm32f40_41xxx.o(RESET) refers to main.o(i.DMA1_Stream5_IRQHandler) for DMA1_Stream5_IRQHandler
    startup_stm32f40_41xxx.o(RESET) refers to main.o(i.DMA1_Stream6_IRQHandler) for DMA1_Stream6_IRQHandler
    startup_stm32f40_41xxx.o(RESET) refers to stm32f4xx_it.o(i.TIM2_IRQHandler) for TIM2_IRQHandler
    startup_stm32f40_41xxx.o(RESET) refers to main.o(i.TIM3_IRQHandler) for TIM3_IRQHandler
    startup_stm32f40_41xxx.o(RESET) refers to stm32f4xx_it.o(i.TIM4_IRQHandler) for TIM4_IRQHandler
    startup_stm32f40_41xxx.o(RESET) refers to stm32f4xx_it.o(i.USART1_IRQHandler) for USART1_IRQHandler
    startup_stm32f40_41xxx.o(.text) refers to system_stm32f4xx.o(i.SystemInit) for SystemInit
    startup_stm32f40_41xxx.o(.text) refers to entry.o(.ARM.Collect$$$$00000000) for __main
==============================================================================

Removing Unused input sections from the image.

    Removing startup_stm32f40_41xxx.o(HEAP), (512 bytes).
    Removing main.o(.rev16_text), (4 bytes).
    Removing main.o(.revsh_text), (4 bytes).
    Removing main.o(.conststring), (5 bytes).
    Removing main.o(.data), (8 bytes).
    Removing main.o(.data), (4 bytes).
    Removing main.o(.data), (4 bytes).
    Removing main.o(.data), (1 bytes).
    Removing main.o(.data), (1 bytes).
    Removing main.o(.data), (4 bytes).
    Removing main.o(.data), (1 bytes).
    Removing main.o(.data), (1 bytes).
    Removing main.o(.data), (4 bytes).
    Removing main.o(.data), (4 bytes).
    Removing stm32f4xx_it.o(.rev16_text), (4 bytes).
    Removing stm32f4xx_it.o(.revsh_text), (4 bytes).
    Removing stm32f4xx_it.o(i.sendPositionToMotor), (72 bytes).
    Removing stm32f4xx_it.o(.data), (1 bytes).
==============================================================================

Image Symbol Table

    Local Symbols

    Symbol Name                              Value     Ov Type        Size  Object(Section)

    ../clib/microlib/errno.c                 0x00000000   Number         0  errno.o ABSOLUTE
    ../clib/microlib/init/entry.s            0x00000000   Number         0  entry8a.o ABSOLUTE
    ../clib/microlib/init/entry.s            0x00000000   Number         0  entry2.o ABSOLUTE
    ../clib/microlib/init/entry.s            0x00000000   Number         0  entry8b.o ABSOLUTE
    ../clib/microlib/init/entry.s            0x00000000   Number         0  entry9a.o ABSOLUTE
    ../clib/microlib/init/entry.s            0x00000000   Number         0  entry9b.o ABSOLUTE
    ../clib/microlib/init/entry.s            0x00000000   Number         0  entry10a.o ABSOLUTE
    ../clib/microlib/init/entry.s            0x00000000   Number         0  entry10b.o ABSOLUTE
    ../clib/microlib/init/entry.s            0x00000000   Number         0  entry11a.o ABSOLUTE
    ../clib/microlib/init/entry.s            0x00000000   Number         0  entry.o ABSOLUTE
    ../clib/microlib/init/entry.s            0x00000000   Number         0  entry11b.o ABSOLUTE
    ../clib/microlib/init/entry.s            0x00000000   Number         0  entry7b.o ABSOLUTE
    ../clib/microlib/init/entry.s            0x00000000   Number         0  entry7a.o ABSOLUTE
    ../clib/microlib/init/entry.s            0x00000000   Number         0  entry5.o ABSOLUTE
    ../clib/microlib/longlong.c              0x00000000   Number         0  llsshr.o ABSOLUTE
    ../clib/microlib/longlong.c              0x00000000   Number         0  llushr.o ABSOLUTE
    ../clib/microlib/longlong.c              0x00000000   Number         0  llshl.o ABSOLUTE
    ../clib/microlib/string/memcpy.c         0x00000000   Number         0  memcpya.o ABSOLUTE
    ../clib/microlib/string/memcpy.c         0x00000000   Number         0  memcpyb.o ABSOLUTE
    ../clib/microlib/stubs.s                 0x00000000   Number         0  iusefp.o ABSOLUTE
    ../fplib/microlib/d2f.c                  0x00000000   Number         0  d2f.o ABSOLUTE
    ../fplib/microlib/f2d.c                  0x00000000   Number         0  f2d.o ABSOLUTE
    ../fplib/microlib/fpadd.c                0x00000000   Number         0  fadd.o ABSOLUTE
    ../fplib/microlib/fpadd.c                0x00000000   Number         0  dadd.o ABSOLUTE
    ../fplib/microlib/fpdiv.c                0x00000000   Number         0  fdiv.o ABSOLUTE
    ../fplib/microlib/fpdiv.c                0x00000000   Number         0  ddiv.o ABSOLUTE
    ../fplib/microlib/fpepilogue.c           0x00000000   Number         0  depilogue.o ABSOLUTE
    ../fplib/microlib/fpepilogue.c           0x00000000   Number         0  fepilogue.o ABSOLUTE
    ../fplib/microlib/fpfix.c                0x00000000   Number         0  ffixi.o ABSOLUTE
    ../fplib/microlib/fpflt.c                0x00000000   Number         0  ffltl.o ABSOLUTE
    ../fplib/microlib/fpflt.c                0x00000000   Number         0  fflti.o ABSOLUTE
    ../fplib/microlib/fpmul.c                0x00000000   Number         0  dmul.o ABSOLUTE
    ../fplib/microlib/fpmul.c                0x00000000   Number         0  fmul.o ABSOLUTE
    ../fplib/microlib/fpscalb.c              0x00000000   Number         0  dscalb.o ABSOLUTE
    ../fplib/microlib/fpscalb.c              0x00000000   Number         0  fscalb.o ABSOLUTE
    ../fplib/microlib/fpsqrt.c               0x00000000   Number         0  dsqrt.o ABSOLUTE
    ../mathlib/atan.c                        0x00000000   Number         0  atan.o ABSOLUTE
    ../mathlib/atan.c                        0x00000000   Number         0  atan_x.o ABSOLUTE
    ../mathlib/dunder.c                      0x00000000   Number         0  dunder.o ABSOLUTE
    ../mathlib/fpclassify.c                  0x00000000   Number         0  fpclassify.o ABSOLUTE
    ../mathlib/poly.c                        0x00000000   Number         0  poly.o ABSOLUTE
    ../mathlib/sqrt.c                        0x00000000   Number         0  sqrt.o ABSOLUTE
    ../mathlib/sqrt.c                        0x00000000   Number         0  sqrt_x.o ABSOLUTE
    ..\Libraries\STM32F4xx_StdPeriph_Driver\src\misc.c 0x00000000   Number         0  misc.o ABSOLUTE
    ..\Libraries\STM32F4xx_StdPeriph_Driver\src\stm32f4xx_adc.c 0x00000000   Number         0  stm32f4xx_adc.o ABSOLUTE
    ..\Libraries\STM32F4xx_StdPeriph_Driver\src\stm32f4xx_dac.c 0x00000000   Number         0  stm32f4xx_dac.o ABSOLUTE
    ..\Libraries\STM32F4xx_StdPeriph_Driver\src\stm32f4xx_dma.c 0x00000000   Number         0  stm32f4xx_dma.o ABSOLUTE
    ..\Libraries\STM32F4xx_StdPeriph_Driver\src\stm32f4xx_exti.c 0x00000000   Number         0  stm32f4xx_exti.o ABSOLUTE
    ..\Libraries\STM32F4xx_StdPeriph_Driver\src\stm32f4xx_gpio.c 0x00000000   Number         0  stm32f4xx_gpio.o ABSOLUTE
    ..\Libraries\STM32F4xx_StdPeriph_Driver\src\stm32f4xx_rcc.c 0x00000000   Number         0  stm32f4xx_rcc.o ABSOLUTE
    ..\Libraries\STM32F4xx_StdPeriph_Driver\src\stm32f4xx_tim.c 0x00000000   Number         0  stm32f4xx_tim.o ABSOLUTE
    ..\Libraries\STM32F4xx_StdPeriph_Driver\src\stm32f4xx_usart.c 0x00000000   Number         0  stm32f4xx_usart.o ABSOLUTE
    ..\\Libraries\\STM32F4xx_StdPeriph_Driver\\src\\misc.c 0x00000000   Number         0  misc.o ABSOLUTE
    ..\\Libraries\\STM32F4xx_StdPeriph_Driver\\src\\stm32f4xx_adc.c 0x00000000   Number         0  stm32f4xx_adc.o ABSOLUTE
    ..\\Libraries\\STM32F4xx_StdPeriph_Driver\\src\\stm32f4xx_dac.c 0x00000000   Number         0  stm32f4xx_dac.o ABSOLUTE
    ..\\Libraries\\STM32F4xx_StdPeriph_Driver\\src\\stm32f4xx_dma.c 0x00000000   Number         0  stm32f4xx_dma.o ABSOLUTE
    ..\\Libraries\\STM32F4xx_StdPeriph_Driver\\src\\stm32f4xx_exti.c 0x00000000   Number         0  stm32f4xx_exti.o ABSOLUTE
    ..\\Libraries\\STM32F4xx_StdPeriph_Driver\\src\\stm32f4xx_gpio.c 0x00000000   Number         0  stm32f4xx_gpio.o ABSOLUTE
    ..\\Libraries\\STM32F4xx_StdPeriph_Driver\\src\\stm32f4xx_rcc.c 0x00000000   Number         0  stm32f4xx_rcc.o ABSOLUTE
    ..\\Libraries\\STM32F4xx_StdPeriph_Driver\\src\\stm32f4xx_tim.c 0x00000000   Number         0  stm32f4xx_tim.o ABSOLUTE
    ..\\Libraries\\STM32F4xx_StdPeriph_Driver\\src\\stm32f4xx_usart.c 0x00000000   Number         0  stm32f4xx_usart.o ABSOLUTE
    ..\\config.c                             0x00000000   Number         0  config.o ABSOLUTE
    ..\\main.c                               0x00000000   Number         0  main.o ABSOLUTE
    ..\\motor.c                              0x00000000   Number         0  motor.o ABSOLUTE
    ..\\stm32f4xx_it.c                       0x00000000   Number         0  stm32f4xx_it.o ABSOLUTE
    ..\\system_stm32f4xx.c                   0x00000000   Number         0  system_stm32f4xx.o ABSOLUTE
    ..\\uart.c                               0x00000000   Number         0  uart.o ABSOLUTE
    ..\config.c                              0x00000000   Number         0  config.o ABSOLUTE
    ..\main.c                                0x00000000   Number         0  main.o ABSOLUTE
    ..\motor.c                               0x00000000   Number         0  motor.o ABSOLUTE
    ..\stm32f4xx_it.c                        0x00000000   Number         0  stm32f4xx_it.o ABSOLUTE
    ..\system_stm32f4xx.c                    0x00000000   Number         0  system_stm32f4xx.o ABSOLUTE
    ..\uart.c                                0x00000000   Number         0  uart.o ABSOLUTE
    cdcmple.s                                0x00000000   Number         0  cdcmple.o ABSOLUTE
    cfcmple.s                                0x00000000   Number         0  cfcmple.o ABSOLUTE
    cfrcmple.s                               0x00000000   Number         0  cfrcmple.o ABSOLUTE
    dc.s                                     0x00000000   Number         0  dc.o ABSOLUTE
    handlers.s                               0x00000000   Number         0  handlers.o ABSOLUTE
    init.s                                   0x00000000   Number         0  init.o ABSOLUTE
    startup_stm32f40_41xxx.s                 0x00000000   Number         0  startup_stm32f40_41xxx.o ABSOLUTE
    RESET                                    0x08000000   Section      392  startup_stm32f40_41xxx.o(RESET)
    .ARM.Collect$$$$00000000                 0x08000188   Section        0  entry.o(.ARM.Collect$$$$00000000)
    .ARM.Collect$$$$00000001                 0x08000188   Section        4  entry2.o(.ARM.Collect$$$$00000001)
    .ARM.Collect$$$$00000004                 0x0800018c   Section        4  entry5.o(.ARM.Collect$$$$00000004)
    .ARM.Collect$$$$00000008                 0x08000190   Section        0  entry7b.o(.ARM.Collect$$$$00000008)
    .ARM.Collect$$$$0000000A                 0x08000190   Section        0  entry8b.o(.ARM.Collect$$$$0000000A)
    .ARM.Collect$$$$0000000B                 0x08000190   Section        8  entry9a.o(.ARM.Collect$$$$0000000B)
    .ARM.Collect$$$$0000000D                 0x08000198   Section        0  entry10a.o(.ARM.Collect$$$$0000000D)
    .ARM.Collect$$$$0000000F                 0x08000198   Section        0  entry11a.o(.ARM.Collect$$$$0000000F)
    .ARM.Collect$$$$00002712                 0x08000198   Section        4  entry2.o(.ARM.Collect$$$$00002712)
    __lit__00000000                          0x08000198   Data           4  entry2.o(.ARM.Collect$$$$00002712)
    .text                                    0x0800019c   Section       36  startup_stm32f40_41xxx.o(.text)
    .text                                    0x080001c0   Section        0  memcpya.o(.text)
    .text                                    0x080001e4   Section        0  fadd.o(.text)
    .text                                    0x08000294   Section        0  fmul.o(.text)
    .text                                    0x08000300   Section        0  fdiv.o(.text)
    .text                                    0x08000380   Section        0  fscalb.o(.text)
    .text                                    0x08000398   Section        0  dadd.o(.text)
    .text                                    0x080004e6   Section        0  dmul.o(.text)
    .text                                    0x080005ca   Section        0  fflti.o(.text)
    .text                                    0x080005dc   Section        0  ffltl.o(.text)
    .text                                    0x08000606   Section        0  ffixi.o(.text)
    .text                                    0x08000638   Section        0  f2d.o(.text)
    .text                                    0x0800065e   Section        0  d2f.o(.text)
    .text                                    0x08000698   Section       20  cfcmple.o(.text)
    .text                                    0x080006ac   Section       20  cfrcmple.o(.text)
    .text                                    0x080006c0   Section        0  llshl.o(.text)
    .text                                    0x080006de   Section        0  llsshr.o(.text)
    .text                                    0x08000702   Section        0  iusefp.o(.text)
    .text                                    0x08000702   Section        0  fepilogue.o(.text)
    .text                                    0x0800076e   Section        0  depilogue.o(.text)
    .text                                    0x0800082c   Section        0  ddiv.o(.text)
    .text                                    0x0800090a   Section        0  dscalb.o(.text)
    .text                                    0x08000938   Section        0  dsqrt.o(.text)
    .text                                    0x080009dc   Section       36  init.o(.text)
    .text                                    0x08000a00   Section        0  llushr.o(.text)
    i.AntiWindup                             0x08000a20   Section        0  motor.o(i.AntiWindup)
    AntiWindup                               0x08000a21   Thumb Code    32  motor.o(i.AntiWindup)
    i.BusFault_Handler                       0x08000a40   Section        0  stm32f4xx_it.o(i.BusFault_Handler)
    i.ConfigDMA_USART_RX                     0x08000a44   Section        0  main.o(i.ConfigDMA_USART_RX)
    i.ConfigDMA_USART_TX                     0x08000ab0   Section        0  main.o(i.ConfigDMA_USART_TX)
    i.ConfigInterruptDMA                     0x08000b20   Section        0  main.o(i.ConfigInterruptDMA)
    i.DMA1_Stream5_IRQHandler                0x08000b5c   Section        0  main.o(i.DMA1_Stream5_IRQHandler)
    i.DMA1_Stream6_IRQHandler                0x08000c74   Section        0  main.o(i.DMA1_Stream6_IRQHandler)
    i.DMA_ClearITPendingBit                  0x08000cb0   Section        0  stm32f4xx_dma.o(i.DMA_ClearITPendingBit)
    i.DMA_Cmd                                0x08000cdc   Section        0  stm32f4xx_dma.o(i.DMA_Cmd)
    i.DMA_GetITStatus                        0x08000cf0   Section        0  stm32f4xx_dma.o(i.DMA_GetITStatus)
    i.DMA_ITConfig                           0x08000d44   Section        0  stm32f4xx_dma.o(i.DMA_ITConfig)
    i.DMA_Init                               0x08000d78   Section        0  stm32f4xx_dma.o(i.DMA_Init)
    i.DebugMon_Handler                       0x08000dcc   Section        0  stm32f4xx_it.o(i.DebugMon_Handler)
    i.GPIO_Init                              0x08000dce   Section        0  stm32f4xx_gpio.o(i.GPIO_Init)
    i.GPIO_PinAFConfig                       0x08000e70   Section        0  stm32f4xx_gpio.o(i.GPIO_PinAFConfig)
    i.GPIO_ResetBits                         0x08000e90   Section        0  stm32f4xx_gpio.o(i.GPIO_ResetBits)
    i.GPIO_SetBits                           0x08000e94   Section        0  stm32f4xx_gpio.o(i.GPIO_SetBits)
    i.GPIO_init                              0x08000e98   Section        0  uart.o(i.GPIO_init)
    i.GetValueDegree                         0x08000f38   Section        0  main.o(i.GetValueDegree)
    i.MemManage_Handler                      0x08000f44   Section        0  stm32f4xx_it.o(i.MemManage_Handler)
    i.Motor_Init                             0x08000f46   Section        0  motor.o(i.Motor_Init)
    i.Motor_Position_PID                     0x08000f78   Section        0  motor.o(i.Motor_Position_PID)
    i.Motor_Speed_PID                        0x080010b0   Section        0  motor.o(i.Motor_Speed_PID)
    i.NMI_Handler                            0x08001204   Section        0  stm32f4xx_it.o(i.NMI_Handler)
    i.NVIC_Init                              0x08001208   Section        0  misc.o(i.NVIC_Init)
    i.NVIC_PriorityGroupConfig               0x0800126c   Section        0  misc.o(i.NVIC_PriorityGroupConfig)
    i.PendSV_Handler                         0x08001280   Section        0  stm32f4xx_it.o(i.PendSV_Handler)
    i.ProcessAxes                            0x08001284   Section        0  main.o(i.ProcessAxes)
    i.RCC_AHB1PeriphClockCmd                 0x080013e4   Section        0  stm32f4xx_rcc.o(i.RCC_AHB1PeriphClockCmd)
    i.RCC_APB1PeriphClockCmd                 0x080013fc   Section        0  stm32f4xx_rcc.o(i.RCC_APB1PeriphClockCmd)
    i.RCC_APB2PeriphClockCmd                 0x08001414   Section        0  stm32f4xx_rcc.o(i.RCC_APB2PeriphClockCmd)
    i.RCC_GetClocksFreq                      0x0800142c   Section        0  stm32f4xx_rcc.o(i.RCC_GetClocksFreq)
    i.SVC_Handler                            0x080014bc   Section        0  stm32f4xx_it.o(i.SVC_Handler)
    i.SetSysClock                            0x080014c0   Section        0  system_stm32f4xx.o(i.SetSysClock)
    SetSysClock                              0x080014c1   Thumb Code   162  system_stm32f4xx.o(i.SetSysClock)
    i.SysTick_Handler                        0x08001574   Section        0  stm32f4xx_it.o(i.SysTick_Handler)
    i.SystemInit                             0x08001578   Section        0  system_stm32f4xx.o(i.SystemInit)
    i.TIM2_IRQHandler                        0x080015c8   Section        0  stm32f4xx_it.o(i.TIM2_IRQHandler)
    i.TIM3_IRQHandler                        0x080015cc   Section        0  main.o(i.TIM3_IRQHandler)
    i.TIM4_IRQHandler                        0x08001644   Section        0  stm32f4xx_it.o(i.TIM4_IRQHandler)
    i.TIM_ARRPreloadConfig                   0x080016e8   Section        0  stm32f4xx_tim.o(i.TIM_ARRPreloadConfig)
    i.TIM_ClearITPendingBit                  0x080016fc   Section        0  stm32f4xx_tim.o(i.TIM_ClearITPendingBit)
    i.TIM_Cmd                                0x08001702   Section        0  stm32f4xx_tim.o(i.TIM_Cmd)
    i.TIM_CtrlPWMOutputs                     0x08001716   Section        0  stm32f4xx_tim.o(i.TIM_CtrlPWMOutputs)
    i.TIM_EncoderInterfaceConfig             0x0800172c   Section        0  stm32f4xx_tim.o(i.TIM_EncoderInterfaceConfig)
    i.TIM_GetCounter                         0x0800175e   Section        0  stm32f4xx_tim.o(i.TIM_GetCounter)
    i.TIM_GetITStatus                        0x08001762   Section        0  stm32f4xx_tim.o(i.TIM_GetITStatus)
    i.TIM_ITConfig                           0x0800177a   Section        0  stm32f4xx_tim.o(i.TIM_ITConfig)
    i.TIM_OC1Init                            0x0800178c   Section        0  stm32f4xx_tim.o(i.TIM_OC1Init)
    i.TIM_OC1PreloadConfig                   0x080017ec   Section        0  stm32f4xx_tim.o(i.TIM_OC1PreloadConfig)
    i.TIM_OC2Init                            0x080017f8   Section        0  stm32f4xx_tim.o(i.TIM_OC2Init)
    i.TIM_OC2PreloadConfig                   0x08001878   Section        0  stm32f4xx_tim.o(i.TIM_OC2PreloadConfig)
    i.TIM_OC3Init                            0x0800188c   Section        0  stm32f4xx_tim.o(i.TIM_OC3Init)
    i.TIM_OC3PreloadConfig                   0x08001908   Section        0  stm32f4xx_tim.o(i.TIM_OC3PreloadConfig)
    i.TIM_SetAutoreload                      0x08001914   Section        0  stm32f4xx_tim.o(i.TIM_SetAutoreload)
    i.TIM_TimeBaseInit                       0x08001918   Section        0  stm32f4xx_tim.o(i.TIM_TimeBaseInit)
    i.Timer1                                 0x08001994   Section        0  config.o(i.Timer1)
    i.Timer2                                 0x08001a6c   Section        0  config.o(i.Timer2)
    i.Timer3                                 0x08001b1c   Section        0  config.o(i.Timer3)
    i.Timer4                                 0x08001b7c   Section        0  config.o(i.Timer4)
    i.Timer5                                 0x08001bd8   Section        0  config.o(i.Timer5)
    i.UART_init                              0x08001c60   Section        0  uart.o(i.UART_init)
    i.USART1_IRQHandler                      0x08001cc4   Section        0  stm32f4xx_it.o(i.USART1_IRQHandler)
    i.USART2_Configuration                   0x08001d10   Section        0  uart.o(i.USART2_Configuration)
    i.USART_ClearITPendingBit                0x08001d9c   Section        0  stm32f4xx_usart.o(i.USART_ClearITPendingBit)
    i.USART_Cmd                              0x08001da8   Section        0  stm32f4xx_usart.o(i.USART_Cmd)
    i.USART_DMACmd                           0x08001dbc   Section        0  stm32f4xx_usart.o(i.USART_DMACmd)
    i.USART_GetITStatus                      0x08001dcc   Section        0  stm32f4xx_usart.o(i.USART_GetITStatus)
    i.USART_ITConfig                         0x08001e0a   Section        0  stm32f4xx_usart.o(i.USART_ITConfig)
    i.USART_Init                             0x08001e3c   Section        0  stm32f4xx_usart.o(i.USART_Init)
    i.USART_ReceiveData                      0x08001ef4   Section        0  stm32f4xx_usart.o(i.USART_ReceiveData)
    i.UsageFault_Handler                     0x08001efc   Section        0  stm32f4xx_it.o(i.UsageFault_Handler)
    i.__ARM_fpclassify                       0x08001efe   Section        0  fpclassify.o(i.__ARM_fpclassify)
    i.__kernel_poly                          0x08001f26   Section        0  poly.o(i.__kernel_poly)
    i.__mathlib_dbl_underflow                0x08001fd0   Section        0  dunder.o(i.__mathlib_dbl_underflow)
    i.__scatterload_copy                     0x08001fe0   Section       14  handlers.o(i.__scatterload_copy)
    i.__scatterload_null                     0x08001fee   Section        2  handlers.o(i.__scatterload_null)
    i.__scatterload_zeroinit                 0x08001ff0   Section       14  handlers.o(i.__scatterload_zeroinit)
    i.__set_errno                            0x08002000   Section        0  errno.o(i.__set_errno)
    i.assginValueToSend                      0x0800200c   Section        0  main.o(i.assginValueToSend)
    i.atan                                   0x08002028   Section        0  atan.o(i.atan)
    i.convertToFloat                         0x0800224c   Section        0  main.o(i.convertToFloat)
    i.delay_01ms                             0x08002270   Section        0  motor.o(i.delay_01ms)
    i.initMotorAgain                         0x080022ac   Section        0  motor.o(i.initMotorAgain)
    i.loadPulseW                             0x080022d4   Section        0  motor.o(i.loadPulseW)
    loadPulseW                               0x080022d5   Thumb Code    92  motor.o(i.loadPulseW)
    i.main                                   0x08002330   Section        0  main.o(i.main)
    i.motor_control                          0x080025c0   Section        0  stm32f4xx_it.o(i.motor_control)
    motor_control                            0x080025c1   Thumb Code    20  stm32f4xx_it.o(i.motor_control)
    i.motor_sampling                         0x080025d4   Section        0  stm32f4xx_it.o(i.motor_sampling)
    motor_sampling                           0x080025d5   Thumb Code   308  stm32f4xx_it.o(i.motor_sampling)
    i.sqrt                                   0x08002710   Section        0  sqrt.o(i.sqrt)
    .constdata                               0x08002760   Section      152  atan.o(.constdata)
    atanhi                                   0x08002760   Data          32  atan.o(.constdata)
    atanlo                                   0x08002780   Data          32  atan.o(.constdata)
    aTodd                                    0x080027a0   Data          40  atan.o(.constdata)
    aTeven                                   0x080027c8   Data          48  atan.o(.constdata)
    .data                                    0x20000000   Section        1  main.o(.data)
    .data                                    0x20000008   Section       56  main.o(.data)
    .data                                    0x20000040   Section       12  config.o(.data)
    .data                                    0x2000004c   Section        4  uart.o(.data)
    .data                                    0x20000050   Section       16  stm32f4xx_rcc.o(.data)
    APBAHBPrescTable                         0x20000050   Data          16  stm32f4xx_rcc.o(.data)
    .data                                    0x20000060   Section        4  errno.o(.data)
    _errno                                   0x20000060   Data           4  errno.o(.data)
    .bss                                     0x20000068   Section      344  main.o(.bss)
    .bss                                     0x200001c0   Section      184  main.o(.bss)
    .bss                                     0x20000278   Section      184  main.o(.bss)
    .bss                                     0x20000330   Section       48  config.o(.bss)
    STACK                                    0x20000360   Section     1024  startup_stm32f40_41xxx.o(STACK)

    Global Symbols

    Symbol Name                              Value     Ov Type        Size  Object(Section)

    BuildAttributes$$THM_ISAv4$E$P$D$K$B$S$7EM$PE$A:L22UL41UL21$X:L11$S22US41US21$IEEE1$IW$USESV6$~STKCKD$USESV7$~SHL$OTIME$ROPI$IEEEX$EBA8$MICROLIB$REQ8$PRES8$EABIv2 0x00000000   Number         0  anon$$obj.o ABSOLUTE
    __ARM_use_no_argv                        0x00000000   Number         0  main.o ABSOLUTE
    __cpp_initialize__aeabi_                  - Undefined Weak Reference
    __cxa_finalize                            - Undefined Weak Reference
    __decompress                              - Undefined Weak Reference
    _clock_init                               - Undefined Weak Reference
    _microlib_exit                            - Undefined Weak Reference
    __Vectors_Size                           0x00000188   Number         0  startup_stm32f40_41xxx.o ABSOLUTE
    __Vectors                                0x08000000   Data           4  startup_stm32f40_41xxx.o(RESET)
    __Vectors_End                            0x08000188   Data           0  startup_stm32f40_41xxx.o(RESET)
    __main                                   0x08000189   Thumb Code     0  entry.o(.ARM.Collect$$$$00000000)
    _main_stk                                0x08000189   Thumb Code     0  entry2.o(.ARM.Collect$$$$00000001)
    _main_scatterload                        0x0800018d   Thumb Code     0  entry5.o(.ARM.Collect$$$$00000004)
    __main_after_scatterload                 0x08000191   Thumb Code     0  entry5.o(.ARM.Collect$$$$00000004)
    _main_clock                              0x08000191   Thumb Code     0  entry7b.o(.ARM.Collect$$$$00000008)
    _main_cpp_init                           0x08000191   Thumb Code     0  entry8b.o(.ARM.Collect$$$$0000000A)
    _main_init                               0x08000191   Thumb Code     0  entry9a.o(.ARM.Collect$$$$0000000B)
    __rt_final_cpp                           0x08000199   Thumb Code     0  entry10a.o(.ARM.Collect$$$$0000000D)
    __rt_final_exit                          0x08000199   Thumb Code     0  entry11a.o(.ARM.Collect$$$$0000000F)
    Reset_Handler                            0x0800019d   Thumb Code     8  startup_stm32f40_41xxx.o(.text)
    HardFault_Handler                        0x080001a7   Thumb Code     2  startup_stm32f40_41xxx.o(.text)
    ADC_IRQHandler                           0x080001b7   Thumb Code     0  startup_stm32f40_41xxx.o(.text)
    CAN1_RX0_IRQHandler                      0x080001b7   Thumb Code     0  startup_stm32f40_41xxx.o(.text)
    CAN1_RX1_IRQHandler                      0x080001b7   Thumb Code     0  startup_stm32f40_41xxx.o(.text)
    CAN1_SCE_IRQHandler                      0x080001b7   Thumb Code     0  startup_stm32f40_41xxx.o(.text)
    CAN1_TX_IRQHandler                       0x080001b7   Thumb Code     0  startup_stm32f40_41xxx.o(.text)
    CAN2_RX0_IRQHandler                      0x080001b7   Thumb Code     0  startup_stm32f40_41xxx.o(.text)
    CAN2_RX1_IRQHandler                      0x080001b7   Thumb Code     0  startup_stm32f40_41xxx.o(.text)
    CAN2_SCE_IRQHandler                      0x080001b7   Thumb Code     0  startup_stm32f40_41xxx.o(.text)
    CAN2_TX_IRQHandler                       0x080001b7   Thumb Code     0  startup_stm32f40_41xxx.o(.text)
    CRYP_IRQHandler                          0x080001b7   Thumb Code     0  startup_stm32f40_41xxx.o(.text)
    DCMI_IRQHandler                          0x080001b7   Thumb Code     0  startup_stm32f40_41xxx.o(.text)
    DMA1_Stream0_IRQHandler                  0x080001b7   Thumb Code     0  startup_stm32f40_41xxx.o(.text)
    DMA1_Stream1_IRQHandler                  0x080001b7   Thumb Code     0  startup_stm32f40_41xxx.o(.text)
    DMA1_Stream2_IRQHandler                  0x080001b7   Thumb Code     0  startup_stm32f40_41xxx.o(.text)
    DMA1_Stream3_IRQHandler                  0x080001b7   Thumb Code     0  startup_stm32f40_41xxx.o(.text)
    DMA1_Stream4_IRQHandler                  0x080001b7   Thumb Code     0  startup_stm32f40_41xxx.o(.text)
    DMA1_Stream7_IRQHandler                  0x080001b7   Thumb Code     0  startup_stm32f40_41xxx.o(.text)
    DMA2_Stream0_IRQHandler                  0x080001b7   Thumb Code     0  startup_stm32f40_41xxx.o(.text)
    DMA2_Stream1_IRQHandler                  0x080001b7   Thumb Code     0  startup_stm32f40_41xxx.o(.text)
    DMA2_Stream2_IRQHandler                  0x080001b7   Thumb Code     0  startup_stm32f40_41xxx.o(.text)
    DMA2_Stream3_IRQHandler                  0x080001b7   Thumb Code     0  startup_stm32f40_41xxx.o(.text)
    DMA2_Stream4_IRQHandler                  0x080001b7   Thumb Code     0  startup_stm32f40_41xxx.o(.text)
    DMA2_Stream5_IRQHandler                  0x080001b7   Thumb Code     0  startup_stm32f40_41xxx.o(.text)
    DMA2_Stream6_IRQHandler                  0x080001b7   Thumb Code     0  startup_stm32f40_41xxx.o(.text)
    DMA2_Stream7_IRQHandler                  0x080001b7   Thumb Code     0  startup_stm32f40_41xxx.o(.text)
    ETH_IRQHandler                           0x080001b7   Thumb Code     0  startup_stm32f40_41xxx.o(.text)
    ETH_WKUP_IRQHandler                      0x080001b7   Thumb Code     0  startup_stm32f40_41xxx.o(.text)
    EXTI0_IRQHandler                         0x080001b7   Thumb Code     0  startup_stm32f40_41xxx.o(.text)
    EXTI15_10_IRQHandler                     0x080001b7   Thumb Code     0  startup_stm32f40_41xxx.o(.text)
    EXTI1_IRQHandler                         0x080001b7   Thumb Code     0  startup_stm32f40_41xxx.o(.text)
    EXTI2_IRQHandler                         0x080001b7   Thumb Code     0  startup_stm32f40_41xxx.o(.text)
    EXTI3_IRQHandler                         0x080001b7   Thumb Code     0  startup_stm32f40_41xxx.o(.text)
    EXTI4_IRQHandler                         0x080001b7   Thumb Code     0  startup_stm32f40_41xxx.o(.text)
    EXTI9_5_IRQHandler                       0x080001b7   Thumb Code     0  startup_stm32f40_41xxx.o(.text)
    FLASH_IRQHandler                         0x080001b7   Thumb Code     0  startup_stm32f40_41xxx.o(.text)
    FPU_IRQHandler                           0x080001b7   Thumb Code     0  startup_stm32f40_41xxx.o(.text)
    FSMC_IRQHandler                          0x080001b7   Thumb Code     0  startup_stm32f40_41xxx.o(.text)
    HASH_RNG_IRQHandler                      0x080001b7   Thumb Code     0  startup_stm32f40_41xxx.o(.text)
    I2C1_ER_IRQHandler                       0x080001b7   Thumb Code     0  startup_stm32f40_41xxx.o(.text)
    I2C1_EV_IRQHandler                       0x080001b7   Thumb Code     0  startup_stm32f40_41xxx.o(.text)
    I2C2_ER_IRQHandler                       0x080001b7   Thumb Code     0  startup_stm32f40_41xxx.o(.text)
    I2C2_EV_IRQHandler                       0x080001b7   Thumb Code     0  startup_stm32f40_41xxx.o(.text)
    I2C3_ER_IRQHandler                       0x080001b7   Thumb Code     0  startup_stm32f40_41xxx.o(.text)
    I2C3_EV_IRQHandler                       0x080001b7   Thumb Code     0  startup_stm32f40_41xxx.o(.text)
    OTG_FS_IRQHandler                        0x080001b7   Thumb Code     0  startup_stm32f40_41xxx.o(.text)
    OTG_FS_WKUP_IRQHandler                   0x080001b7   Thumb Code     0  startup_stm32f40_41xxx.o(.text)
    OTG_HS_EP1_IN_IRQHandler                 0x080001b7   Thumb Code     0  startup_stm32f40_41xxx.o(.text)
    OTG_HS_EP1_OUT_IRQHandler                0x080001b7   Thumb Code     0  startup_stm32f40_41xxx.o(.text)
    OTG_HS_IRQHandler                        0x080001b7   Thumb Code     0  startup_stm32f40_41xxx.o(.text)
    OTG_HS_WKUP_IRQHandler                   0x080001b7   Thumb Code     0  startup_stm32f40_41xxx.o(.text)
    PVD_IRQHandler                           0x080001b7   Thumb Code     0  startup_stm32f40_41xxx.o(.text)
    RCC_IRQHandler                           0x080001b7   Thumb Code     0  startup_stm32f40_41xxx.o(.text)
    RTC_Alarm_IRQHandler                     0x080001b7   Thumb Code     0  startup_stm32f40_41xxx.o(.text)
    RTC_WKUP_IRQHandler                      0x080001b7   Thumb Code     0  startup_stm32f40_41xxx.o(.text)
    SDIO_IRQHandler                          0x080001b7   Thumb Code     0  startup_stm32f40_41xxx.o(.text)
    SPI1_IRQHandler                          0x080001b7   Thumb Code     0  startup_stm32f40_41xxx.o(.text)
    SPI2_IRQHandler                          0x080001b7   Thumb Code     0  startup_stm32f40_41xxx.o(.text)
    SPI3_IRQHandler                          0x080001b7   Thumb Code     0  startup_stm32f40_41xxx.o(.text)
    TAMP_STAMP_IRQHandler                    0x080001b7   Thumb Code     0  startup_stm32f40_41xxx.o(.text)
    TIM1_BRK_TIM9_IRQHandler                 0x080001b7   Thumb Code     0  startup_stm32f40_41xxx.o(.text)
    TIM1_CC_IRQHandler                       0x080001b7   Thumb Code     0  startup_stm32f40_41xxx.o(.text)
    TIM1_TRG_COM_TIM11_IRQHandler            0x080001b7   Thumb Code     0  startup_stm32f40_41xxx.o(.text)
    TIM1_UP_TIM10_IRQHandler                 0x080001b7   Thumb Code     0  startup_stm32f40_41xxx.o(.text)
    TIM5_IRQHandler                          0x080001b7   Thumb Code     0  startup_stm32f40_41xxx.o(.text)
    TIM6_DAC_IRQHandler                      0x080001b7   Thumb Code     0  startup_stm32f40_41xxx.o(.text)
    TIM7_IRQHandler                          0x080001b7   Thumb Code     0  startup_stm32f40_41xxx.o(.text)
    TIM8_BRK_TIM12_IRQHandler                0x080001b7   Thumb Code     0  startup_stm32f40_41xxx.o(.text)
    TIM8_CC_IRQHandler                       0x080001b7   Thumb Code     0  startup_stm32f40_41xxx.o(.text)
    TIM8_TRG_COM_TIM14_IRQHandler            0x080001b7   Thumb Code     0  startup_stm32f40_41xxx.o(.text)
    TIM8_UP_TIM13_IRQHandler                 0x080001b7   Thumb Code     0  startup_stm32f40_41xxx.o(.text)
    UART4_IRQHandler                         0x080001b7   Thumb Code     0  startup_stm32f40_41xxx.o(.text)
    UART5_IRQHandler                         0x080001b7   Thumb Code     0  startup_stm32f40_41xxx.o(.text)
    USART2_IRQHandler                        0x080001b7   Thumb Code     0  startup_stm32f40_41xxx.o(.text)
    USART3_IRQHandler                        0x080001b7   Thumb Code     0  startup_stm32f40_41xxx.o(.text)
    USART6_IRQHandler                        0x080001b7   Thumb Code     0  startup_stm32f40_41xxx.o(.text)
    WWDG_IRQHandler                          0x080001b7   Thumb Code     0  startup_stm32f40_41xxx.o(.text)
    __aeabi_memcpy                           0x080001c1   Thumb Code    36  memcpya.o(.text)
    __aeabi_memcpy4                          0x080001c1   Thumb Code     0  memcpya.o(.text)
    __aeabi_memcpy8                          0x080001c1   Thumb Code     0  memcpya.o(.text)
    __aeabi_fadd                             0x080001e5   Thumb Code   164  fadd.o(.text)
    __aeabi_fsub                             0x08000289   Thumb Code     6  fadd.o(.text)
    __aeabi_frsub                            0x0800028f   Thumb Code     6  fadd.o(.text)
    __aeabi_fmul                             0x08000295   Thumb Code   108  fmul.o(.text)
    __aeabi_fdiv                             0x08000301   Thumb Code   128  fdiv.o(.text)
    __ARM_scalbnf                            0x08000381   Thumb Code    24  fscalb.o(.text)
    scalbnf                                  0x08000381   Thumb Code     0  fscalb.o(.text)
    __aeabi_dadd                             0x08000399   Thumb Code   322  dadd.o(.text)
    __aeabi_dsub                             0x080004db   Thumb Code     6  dadd.o(.text)
    __aeabi_drsub                            0x080004e1   Thumb Code     6  dadd.o(.text)
    __aeabi_dmul                             0x080004e7   Thumb Code   228  dmul.o(.text)
    __aeabi_i2f                              0x080005cb   Thumb Code    18  fflti.o(.text)
    __aeabi_l2f                              0x080005dd   Thumb Code    42  ffltl.o(.text)
    __aeabi_f2iz                             0x08000607   Thumb Code    50  ffixi.o(.text)
    __aeabi_f2d                              0x08000639   Thumb Code    38  f2d.o(.text)
    __aeabi_d2f                              0x0800065f   Thumb Code    56  d2f.o(.text)
    __aeabi_cfcmpeq                          0x08000699   Thumb Code     0  cfcmple.o(.text)
    __aeabi_cfcmple                          0x08000699   Thumb Code    20  cfcmple.o(.text)
    __aeabi_cfrcmple                         0x080006ad   Thumb Code    20  cfrcmple.o(.text)
    __aeabi_llsl                             0x080006c1   Thumb Code    30  llshl.o(.text)
    _ll_shift_l                              0x080006c1   Thumb Code     0  llshl.o(.text)
    __aeabi_lasr                             0x080006df   Thumb Code    36  llsshr.o(.text)
    _ll_sshift_r                             0x080006df   Thumb Code     0  llsshr.o(.text)
    __I$use$fp                               0x08000703   Thumb Code     0  iusefp.o(.text)
    _float_round                             0x08000703   Thumb Code    18  fepilogue.o(.text)
    _float_epilogue                          0x08000715   Thumb Code    90  fepilogue.o(.text)
    _double_round                            0x0800076f   Thumb Code    26  depilogue.o(.text)
    _double_epilogue                         0x08000789   Thumb Code   164  depilogue.o(.text)
    __aeabi_ddiv                             0x0800082d   Thumb Code   222  ddiv.o(.text)
    __ARM_scalbn                             0x0800090b   Thumb Code    46  dscalb.o(.text)
    scalbn                                   0x0800090b   Thumb Code     0  dscalb.o(.text)
    _dsqrt                                   0x08000939   Thumb Code   162  dsqrt.o(.text)
    __scatterload                            0x080009dd   Thumb Code    28  init.o(.text)
    __scatterload_rt2                        0x080009dd   Thumb Code     0  init.o(.text)
    __aeabi_llsr                             0x08000a01   Thumb Code    32  llushr.o(.text)
    _ll_ushift_r                             0x08000a01   Thumb Code     0  llushr.o(.text)
    BusFault_Handler                         0x08000a41   Thumb Code     2  stm32f4xx_it.o(i.BusFault_Handler)
    ConfigDMA_USART_RX                       0x08000a45   Thumb Code    96  main.o(i.ConfigDMA_USART_RX)
    ConfigDMA_USART_TX                       0x08000ab1   Thumb Code    98  main.o(i.ConfigDMA_USART_TX)
    ConfigInterruptDMA                       0x08000b21   Thumb Code    60  main.o(i.ConfigInterruptDMA)
    DMA1_Stream5_IRQHandler                  0x08000b5d   Thumb Code   250  main.o(i.DMA1_Stream5_IRQHandler)
    DMA1_Stream6_IRQHandler                  0x08000c75   Thumb Code    46  main.o(i.DMA1_Stream6_IRQHandler)
    DMA_ClearITPendingBit                    0x08000cb1   Thumb Code    32  stm32f4xx_dma.o(i.DMA_ClearITPendingBit)
    DMA_Cmd                                  0x08000cdd   Thumb Code    20  stm32f4xx_dma.o(i.DMA_Cmd)
    DMA_GetITStatus                          0x08000cf1   Thumb Code    68  stm32f4xx_dma.o(i.DMA_GetITStatus)
    DMA_ITConfig                             0x08000d45   Thumb Code    52  stm32f4xx_dma.o(i.DMA_ITConfig)
    DMA_Init                                 0x08000d79   Thumb Code    80  stm32f4xx_dma.o(i.DMA_Init)
    DebugMon_Handler                         0x08000dcd   Thumb Code     2  stm32f4xx_it.o(i.DebugMon_Handler)
    GPIO_Init                                0x08000dcf   Thumb Code   162  stm32f4xx_gpio.o(i.GPIO_Init)
    GPIO_PinAFConfig                         0x08000e71   Thumb Code    32  stm32f4xx_gpio.o(i.GPIO_PinAFConfig)
    GPIO_ResetBits                           0x08000e91   Thumb Code     4  stm32f4xx_gpio.o(i.GPIO_ResetBits)
    GPIO_SetBits                             0x08000e95   Thumb Code     4  stm32f4xx_gpio.o(i.GPIO_SetBits)
    GPIO_init                                0x08000e99   Thumb Code   148  uart.o(i.GPIO_init)
    GetValueDegree                           0x08000f39   Thumb Code     6  main.o(i.GetValueDegree)
    MemManage_Handler                        0x08000f45   Thumb Code     2  stm32f4xx_it.o(i.MemManage_Handler)
    Motor_Init                               0x08000f47   Thumb Code    48  motor.o(i.Motor_Init)
    Motor_Position_PID                       0x08000f79   Thumb Code   296  motor.o(i.Motor_Position_PID)
    Motor_Speed_PID                          0x080010b1   Thumb Code   326  motor.o(i.Motor_Speed_PID)
    NMI_Handler                              0x08001205   Thumb Code     2  stm32f4xx_it.o(i.NMI_Handler)
    NVIC_Init                                0x08001209   Thumb Code    92  misc.o(i.NVIC_Init)
    NVIC_PriorityGroupConfig                 0x0800126d   Thumb Code    10  misc.o(i.NVIC_PriorityGroupConfig)
    PendSV_Handler                           0x08001281   Thumb Code     2  stm32f4xx_it.o(i.PendSV_Handler)
    ProcessAxes                              0x08001285   Thumb Code   314  main.o(i.ProcessAxes)
    RCC_AHB1PeriphClockCmd                   0x080013e5   Thumb Code    18  stm32f4xx_rcc.o(i.RCC_AHB1PeriphClockCmd)
    RCC_APB1PeriphClockCmd                   0x080013fd   Thumb Code    18  stm32f4xx_rcc.o(i.RCC_APB1PeriphClockCmd)
    RCC_APB2PeriphClockCmd                   0x08001415   Thumb Code    18  stm32f4xx_rcc.o(i.RCC_APB2PeriphClockCmd)
    RCC_GetClocksFreq                        0x0800142d   Thumb Code   132  stm32f4xx_rcc.o(i.RCC_GetClocksFreq)
    SVC_Handler                              0x080014bd   Thumb Code     2  stm32f4xx_it.o(i.SVC_Handler)
    SysTick_Handler                          0x08001575   Thumb Code     2  stm32f4xx_it.o(i.SysTick_Handler)
    SystemInit                               0x08001579   Thumb Code    62  system_stm32f4xx.o(i.SystemInit)
    TIM2_IRQHandler                          0x080015c9   Thumb Code     2  stm32f4xx_it.o(i.TIM2_IRQHandler)
    TIM3_IRQHandler                          0x080015cd   Thumb Code   102  main.o(i.TIM3_IRQHandler)
    TIM4_IRQHandler                          0x08001645   Thumb Code   144  stm32f4xx_it.o(i.TIM4_IRQHandler)
    TIM_ARRPreloadConfig                     0x080016e9   Thumb Code    20  stm32f4xx_tim.o(i.TIM_ARRPreloadConfig)
    TIM_ClearITPendingBit                    0x080016fd   Thumb Code     6  stm32f4xx_tim.o(i.TIM_ClearITPendingBit)
    TIM_Cmd                                  0x08001703   Thumb Code    20  stm32f4xx_tim.o(i.TIM_Cmd)
    TIM_CtrlPWMOutputs                       0x08001717   Thumb Code    22  stm32f4xx_tim.o(i.TIM_CtrlPWMOutputs)
    TIM_EncoderInterfaceConfig               0x0800172d   Thumb Code    50  stm32f4xx_tim.o(i.TIM_EncoderInterfaceConfig)
    TIM_GetCounter                           0x0800175f   Thumb Code     4  stm32f4xx_tim.o(i.TIM_GetCounter)
    TIM_GetITStatus                          0x08001763   Thumb Code    24  stm32f4xx_tim.o(i.TIM_GetITStatus)
    TIM_ITConfig                             0x0800177b   Thumb Code    16  stm32f4xx_tim.o(i.TIM_ITConfig)
    TIM_OC1Init                              0x0800178d   Thumb Code    88  stm32f4xx_tim.o(i.TIM_OC1Init)
    TIM_OC1PreloadConfig                     0x080017ed   Thumb Code    12  stm32f4xx_tim.o(i.TIM_OC1PreloadConfig)
    TIM_OC2Init                              0x080017f9   Thumb Code   120  stm32f4xx_tim.o(i.TIM_OC2Init)
    TIM_OC2PreloadConfig                     0x08001879   Thumb Code    20  stm32f4xx_tim.o(i.TIM_OC2PreloadConfig)
    TIM_OC3Init                              0x0800188d   Thumb Code   116  stm32f4xx_tim.o(i.TIM_OC3Init)
    TIM_OC3PreloadConfig                     0x08001909   Thumb Code    12  stm32f4xx_tim.o(i.TIM_OC3PreloadConfig)
    TIM_SetAutoreload                        0x08001915   Thumb Code     4  stm32f4xx_tim.o(i.TIM_SetAutoreload)
    TIM_TimeBaseInit                         0x08001919   Thumb Code    96  stm32f4xx_tim.o(i.TIM_TimeBaseInit)
    Timer1                                   0x08001995   Thumb Code   198  config.o(i.Timer1)
    Timer2                                   0x08001a6d   Thumb Code   158  config.o(i.Timer2)
    Timer3                                   0x08001b1d   Thumb Code    82  config.o(i.Timer3)
    Timer4                                   0x08001b7d   Thumb Code    80  config.o(i.Timer4)
    Timer5                                   0x08001bd9   Thumb Code   120  config.o(i.Timer5)
    UART_init                                0x08001c61   Thumb Code    92  uart.o(i.UART_init)
    USART1_IRQHandler                        0x08001cc5   Thumb Code    62  stm32f4xx_it.o(i.USART1_IRQHandler)
    USART2_Configuration                     0x08001d11   Thumb Code   132  uart.o(i.USART2_Configuration)
    USART_ClearITPendingBit                  0x08001d9d   Thumb Code    12  stm32f4xx_usart.o(i.USART_ClearITPendingBit)
    USART_Cmd                                0x08001da9   Thumb Code    20  stm32f4xx_usart.o(i.USART_Cmd)
    USART_DMACmd                             0x08001dbd   Thumb Code    16  stm32f4xx_usart.o(i.USART_DMACmd)
    USART_GetITStatus                        0x08001dcd   Thumb Code    62  stm32f4xx_usart.o(i.USART_GetITStatus)
    USART_ITConfig                           0x08001e0b   Thumb Code    48  stm32f4xx_usart.o(i.USART_ITConfig)
    USART_Init                               0x08001e3d   Thumb Code   174  stm32f4xx_usart.o(i.USART_Init)
    USART_ReceiveData                        0x08001ef5   Thumb Code     8  stm32f4xx_usart.o(i.USART_ReceiveData)
    UsageFault_Handler                       0x08001efd   Thumb Code     2  stm32f4xx_it.o(i.UsageFault_Handler)
    __ARM_fpclassify                         0x08001eff   Thumb Code    40  fpclassify.o(i.__ARM_fpclassify)
    __kernel_poly                            0x08001f27   Thumb Code   170  poly.o(i.__kernel_poly)
    __mathlib_dbl_underflow                  0x08001fd1   Thumb Code    10  dunder.o(i.__mathlib_dbl_underflow)
    __scatterload_copy                       0x08001fe1   Thumb Code    14  handlers.o(i.__scatterload_copy)
    __scatterload_null                       0x08001fef   Thumb Code     2  handlers.o(i.__scatterload_null)
    __scatterload_zeroinit                   0x08001ff1   Thumb Code    14  handlers.o(i.__scatterload_zeroinit)
    __set_errno                              0x08002001   Thumb Code     6  errno.o(i.__set_errno)
    assginValueToSend                        0x0800200d   Thumb Code    26  main.o(i.assginValueToSend)
    atan                                     0x08002029   Thumb Code   478  atan.o(i.atan)
    convertToFloat                           0x0800224d   Thumb Code    36  main.o(i.convertToFloat)
    delay_01ms                               0x08002271   Thumb Code    56  motor.o(i.delay_01ms)
    initMotorAgain                           0x080022ad   Thumb Code    40  motor.o(i.initMotorAgain)
    main                                     0x08002331   Thumb Code   566  main.o(i.main)
    sqrt                                     0x08002711   Thumb Code    76  sqrt.o(i.sqrt)
    Region$$Table$$Base                      0x080027f8   Number         0  anon$$obj.o(Region$$Table)
    Region$$Table$$Limit                     0x08002818   Number         0  anon$$obj.o(Region$$Table)
    charReceived                             0x20000000   Data           1  main.o(.data)
    resetCount                               0x20000008   Data           1  main.o(.data)
    state                                    0x2000000a   Data           2  main.o(.data)
    reset                                    0x2000000c   Data           2  main.o(.data)
    lengthData                               0x2000000e   Data           2  main.o(.data)
    start                                    0x20000010   Data           4  main.o(.data)
    pMotor1                                  0x20000014   Data           4  main.o(.data)
    pMotor2                                  0x20000018   Data           4  main.o(.data)
    setSpeed                                 0x2000001c   Data           4  main.o(.data)
    x                                        0x20000020   Data           4  main.o(.data)
    y                                        0x20000024   Data           4  main.o(.data)
    ENCCount                                 0x20000028   Data           8  main.o(.data)
    bufferMotor1                             0x20000030   Data           8  main.o(.data)
    bufferMotor2                             0x20000038   Data           8  main.o(.data)
    NVIC_InitStructure                       0x20000040   Data           4  config.o(.data)
    GPIO_InitStructure                       0x20000044   Data           8  config.o(.data)
    NVICinit                                 0x2000004c   Data           4  uart.o(.data)
    USARTBuffer                              0x20000068   Data          44  main.o(.bss)
    USARTBufferRX                            0x20000094   Data          40  main.o(.bss)
    speedParams1                             0x200000c0   Data          56  main.o(.bss)
    positionParams1                          0x200000f8   Data          56  main.o(.bss)
    profile1                                 0x20000130   Data          16  main.o(.bss)
    speedParams2                             0x20000140   Data          56  main.o(.bss)
    positionParams2                          0x20000178   Data          56  main.o(.bss)
    profile2                                 0x200001b0   Data          16  main.o(.bss)
    motor1                                   0x200001c0   Data         184  main.o(.bss)
    motor2                                   0x20000278   Data         184  main.o(.bss)
    timInit                                  0x20000330   Data          12  config.o(.bss)
    TIM_OCInitStructure                      0x2000033c   Data          20  config.o(.bss)
    USART_InitStructure                      0x20000350   Data          16  config.o(.bss)
    __initial_sp                             0x20000760   Data           0  startup_stm32f40_41xxx.o(STACK)



==============================================================================

Memory Map of the image

  Image Entry point : 0x08000189

  Load Region LR_IROM1 (Base: 0x08000000, Size: 0x0000287c, Max: 0x00100000, ABSOLUTE)

    Execution Region ER_IROM1 (Base: 0x08000000, Size: 0x00002818, Max: 0x00100000, ABSOLUTE)

    Base Addr    Size         Type   Attr      Idx    E Section Name        Object

    0x08000000   0x00000188   Data   RO            3    RESET               startup_stm32f40_41xxx.o
    0x08000188   0x00000000   Code   RO         2340  * .ARM.Collect$$$$00000000  mc_w.l(entry.o)
    0x08000188   0x00000004   Code   RO         2379    .ARM.Collect$$$$00000001  mc_w.l(entry2.o)
    0x0800018c   0x00000004   Code   RO         2382    .ARM.Collect$$$$00000004  mc_w.l(entry5.o)
    0x08000190   0x00000000   Code   RO         2384    .ARM.Collect$$$$00000008  mc_w.l(entry7b.o)
    0x08000190   0x00000000   Code   RO         2386    .ARM.Collect$$$$0000000A  mc_w.l(entry8b.o)
    0x08000190   0x00000008   Code   RO         2387    .ARM.Collect$$$$0000000B  mc_w.l(entry9a.o)
    0x08000198   0x00000000   Code   RO         2389    .ARM.Collect$$$$0000000D  mc_w.l(entry10a.o)
    0x08000198   0x00000000   Code   RO         2391    .ARM.Collect$$$$0000000F  mc_w.l(entry11a.o)
    0x08000198   0x00000004   Code   RO         2380    .ARM.Collect$$$$00002712  mc_w.l(entry2.o)
    0x0800019c   0x00000024   Code   RO            4    .text               startup_stm32f40_41xxx.o
    0x080001c0   0x00000024   Code   RO         2343    .text               mc_w.l(memcpya.o)
    0x080001e4   0x000000b0   Code   RO         2347    .text               mf_w.l(fadd.o)
    0x08000294   0x0000006c   Code   RO         2349    .text               mf_w.l(fmul.o)
    0x08000300   0x00000080   Code   RO         2351    .text               mf_w.l(fdiv.o)
    0x08000380   0x00000018   Code   RO         2353    .text               mf_w.l(fscalb.o)
    0x08000398   0x0000014e   Code   RO         2355    .text               mf_w.l(dadd.o)
    0x080004e6   0x000000e4   Code   RO         2357    .text               mf_w.l(dmul.o)
    0x080005ca   0x00000012   Code   RO         2359    .text               mf_w.l(fflti.o)
    0x080005dc   0x0000002a   Code   RO         2361    .text               mf_w.l(ffltl.o)
    0x08000606   0x00000032   Code   RO         2363    .text               mf_w.l(ffixi.o)
    0x08000638   0x00000026   Code   RO         2365    .text               mf_w.l(f2d.o)
    0x0800065e   0x00000038   Code   RO         2367    .text               mf_w.l(d2f.o)
    0x08000696   0x00000002   PAD
    0x08000698   0x00000014   Code   RO         2369    .text               mf_w.l(cfcmple.o)
    0x080006ac   0x00000014   Code   RO         2371    .text               mf_w.l(cfrcmple.o)
    0x080006c0   0x0000001e   Code   RO         2393    .text               mc_w.l(llshl.o)
    0x080006de   0x00000024   Code   RO         2395    .text               mc_w.l(llsshr.o)
    0x08000702   0x00000000   Code   RO         2404    .text               mc_w.l(iusefp.o)
    0x08000702   0x0000006c   Code   RO         2405    .text               mf_w.l(fepilogue.o)
    0x0800076e   0x000000be   Code   RO         2407    .text               mf_w.l(depilogue.o)
    0x0800082c   0x000000de   Code   RO         2409    .text               mf_w.l(ddiv.o)
    0x0800090a   0x0000002e   Code   RO         2411    .text               mf_w.l(dscalb.o)
    0x08000938   0x000000a2   Code   RO         2413    .text               mf_w.l(dsqrt.o)
    0x080009da   0x00000002   PAD
    0x080009dc   0x00000024   Code   RO         2417    .text               mc_w.l(init.o)
    0x08000a00   0x00000020   Code   RO         2419    .text               mc_w.l(llushr.o)
    0x08000a20   0x00000020   Code   RO          404    i.AntiWindup        motor.o
    0x08000a40   0x00000002   Code   RO          233    i.BusFault_Handler  stm32f4xx_it.o
    0x08000a42   0x00000002   PAD
    0x08000a44   0x0000006c   Code   RO           12    i.ConfigDMA_USART_RX  main.o
    0x08000ab0   0x00000070   Code   RO           13    i.ConfigDMA_USART_TX  main.o
    0x08000b20   0x0000003c   Code   RO           14    i.ConfigInterruptDMA  main.o
    0x08000b5c   0x00000118   Code   RO           15    i.DMA1_Stream5_IRQHandler  main.o
    0x08000c74   0x0000003c   Code   RO           16    i.DMA1_Stream6_IRQHandler  main.o
    0x08000cb0   0x0000002c   Code   RO         1309    i.DMA_ClearITPendingBit  stm32f4xx_dma.o
    0x08000cdc   0x00000014   Code   RO         1310    i.DMA_Cmd           stm32f4xx_dma.o
    0x08000cf0   0x00000054   Code   RO         1320    i.DMA_GetITStatus   stm32f4xx_dma.o
    0x08000d44   0x00000034   Code   RO         1321    i.DMA_ITConfig      stm32f4xx_dma.o
    0x08000d78   0x00000054   Code   RO         1322    i.DMA_Init          stm32f4xx_dma.o
    0x08000dcc   0x00000002   Code   RO          234    i.DebugMon_Handler  stm32f4xx_it.o
    0x08000dce   0x000000a2   Code   RO          689    i.GPIO_Init         stm32f4xx_gpio.o
    0x08000e70   0x00000020   Code   RO          690    i.GPIO_PinAFConfig  stm32f4xx_gpio.o
    0x08000e90   0x00000004   Code   RO          696    i.GPIO_ResetBits    stm32f4xx_gpio.o
    0x08000e94   0x00000004   Code   RO          697    i.GPIO_SetBits      stm32f4xx_gpio.o
    0x08000e98   0x000000a0   Code   RO          529    i.GPIO_init         uart.o
    0x08000f38   0x0000000c   Code   RO           17    i.GetValueDegree    main.o
    0x08000f44   0x00000002   Code   RO          235    i.MemManage_Handler  stm32f4xx_it.o
    0x08000f46   0x00000030   Code   RO          405    i.Motor_Init        motor.o
    0x08000f76   0x00000002   PAD
    0x08000f78   0x00000138   Code   RO          406    i.Motor_Position_PID  motor.o
    0x080010b0   0x00000154   Code   RO          407    i.Motor_Speed_PID   motor.o
    0x08001204   0x00000002   Code   RO          236    i.NMI_Handler       stm32f4xx_it.o
    0x08001206   0x00000002   PAD
    0x08001208   0x00000064   Code   RO          582    i.NVIC_Init         misc.o
    0x0800126c   0x00000014   Code   RO          583    i.NVIC_PriorityGroupConfig  misc.o
    0x08001280   0x00000002   Code   RO          237    i.PendSV_Handler    stm32f4xx_it.o
    0x08001282   0x00000002   PAD
    0x08001284   0x00000160   Code   RO           18    i.ProcessAxes       main.o
    0x080013e4   0x00000018   Code   RO          786    i.RCC_AHB1PeriphClockCmd  stm32f4xx_rcc.o
    0x080013fc   0x00000018   Code   RO          795    i.RCC_APB1PeriphClockCmd  stm32f4xx_rcc.o
    0x08001414   0x00000018   Code   RO          798    i.RCC_APB2PeriphClockCmd  stm32f4xx_rcc.o
    0x0800142c   0x00000090   Code   RO          807    i.RCC_GetClocksFreq  stm32f4xx_rcc.o
    0x080014bc   0x00000002   Code   RO          238    i.SVC_Handler       stm32f4xx_it.o
    0x080014be   0x00000002   PAD
    0x080014c0   0x000000b4   Code   RO         2287    i.SetSysClock       system_stm32f4xx.o
    0x08001574   0x00000002   Code   RO          239    i.SysTick_Handler   stm32f4xx_it.o
    0x08001576   0x00000002   PAD
    0x08001578   0x00000050   Code   RO         2289    i.SystemInit        system_stm32f4xx.o
    0x080015c8   0x00000002   Code   RO          240    i.TIM2_IRQHandler   stm32f4xx_it.o
    0x080015ca   0x00000002   PAD
    0x080015cc   0x00000078   Code   RO           19    i.TIM3_IRQHandler   main.o
    0x08001644   0x000000a4   Code   RO          241    i.TIM4_IRQHandler   stm32f4xx_it.o
    0x080016e8   0x00000014   Code   RO         1742    i.TIM_ARRPreloadConfig  stm32f4xx_tim.o
    0x080016fc   0x00000006   Code   RO         1749    i.TIM_ClearITPendingBit  stm32f4xx_tim.o
    0x08001702   0x00000014   Code   RO         1754    i.TIM_Cmd           stm32f4xx_tim.o
    0x08001716   0x00000016   Code   RO         1756    i.TIM_CtrlPWMOutputs  stm32f4xx_tim.o
    0x0800172c   0x00000032   Code   RO         1763    i.TIM_EncoderInterfaceConfig  stm32f4xx_tim.o
    0x0800175e   0x00000004   Code   RO         1773    i.TIM_GetCounter    stm32f4xx_tim.o
    0x08001762   0x00000018   Code   RO         1775    i.TIM_GetITStatus   stm32f4xx_tim.o
    0x0800177a   0x00000010   Code   RO         1779    i.TIM_ITConfig      stm32f4xx_tim.o
    0x0800178a   0x00000002   PAD
    0x0800178c   0x00000060   Code   RO         1783    i.TIM_OC1Init       stm32f4xx_tim.o
    0x080017ec   0x0000000c   Code   RO         1786    i.TIM_OC1PreloadConfig  stm32f4xx_tim.o
    0x080017f8   0x00000080   Code   RO         1788    i.TIM_OC2Init       stm32f4xx_tim.o
    0x08001878   0x00000014   Code   RO         1791    i.TIM_OC2PreloadConfig  stm32f4xx_tim.o
    0x0800188c   0x0000007c   Code   RO         1793    i.TIM_OC3Init       stm32f4xx_tim.o
    0x08001908   0x0000000c   Code   RO         1796    i.TIM_OC3PreloadConfig  stm32f4xx_tim.o
    0x08001914   0x00000004   Code   RO         1814    i.TIM_SetAutoreload  stm32f4xx_tim.o
    0x08001918   0x0000007c   Code   RO         1826    i.TIM_TimeBaseInit  stm32f4xx_tim.o
    0x08001994   0x000000d8   Code   RO          460    i.Timer1            config.o
    0x08001a6c   0x000000b0   Code   RO          461    i.Timer2            config.o
    0x08001b1c   0x00000060   Code   RO          462    i.Timer3            config.o
    0x08001b7c   0x0000005c   Code   RO          463    i.Timer4            config.o
    0x08001bd8   0x00000088   Code   RO          464    i.Timer5            config.o
    0x08001c60   0x00000064   Code   RO          532    i.UART_init         uart.o
    0x08001cc4   0x0000004c   Code   RO          242    i.USART1_IRQHandler  stm32f4xx_it.o
    0x08001d10   0x0000008c   Code   RO          533    i.USART2_Configuration  uart.o
    0x08001d9c   0x0000000c   Code   RO         1553    i.USART_ClearITPendingBit  stm32f4xx_usart.o
    0x08001da8   0x00000014   Code   RO         1556    i.USART_Cmd         stm32f4xx_usart.o
    0x08001dbc   0x00000010   Code   RO         1557    i.USART_DMACmd      stm32f4xx_usart.o
    0x08001dcc   0x0000003e   Code   RO         1560    i.USART_GetITStatus  stm32f4xx_usart.o
    0x08001e0a   0x00000030   Code   RO         1562    i.USART_ITConfig    stm32f4xx_usart.o
    0x08001e3a   0x00000002   PAD
    0x08001e3c   0x000000b8   Code   RO         1563    i.USART_Init        stm32f4xx_usart.o
    0x08001ef4   0x00000008   Code   RO         1570    i.USART_ReceiveData  stm32f4xx_usart.o
    0x08001efc   0x00000002   Code   RO          243    i.UsageFault_Handler  stm32f4xx_it.o
    0x08001efe   0x00000028   Code   RO         2375    i.__ARM_fpclassify  m_ws.l(fpclassify.o)
    0x08001f26   0x000000aa   Code   RO         2377    i.__kernel_poly     m_ws.l(poly.o)
    0x08001fd0   0x00000010   Code   RO         2373    i.__mathlib_dbl_underflow  m_ws.l(dunder.o)
    0x08001fe0   0x0000000e   Code   RO         2423    i.__scatterload_copy  mc_w.l(handlers.o)
    0x08001fee   0x00000002   Code   RO         2424    i.__scatterload_null  mc_w.l(handlers.o)
    0x08001ff0   0x0000000e   Code   RO         2425    i.__scatterload_zeroinit  mc_w.l(handlers.o)
    0x08001ffe   0x00000002   PAD
    0x08002000   0x0000000c   Code   RO         2399    i.__set_errno       mc_w.l(errno.o)
    0x0800200c   0x0000001a   Code   RO           20    i.assginValueToSend  main.o
    0x08002026   0x00000002   PAD
    0x08002028   0x00000224   Code   RO         2323    i.atan              m_ws.l(atan.o)
    0x0800224c   0x00000024   Code   RO           21    i.convertToFloat    main.o
    0x08002270   0x0000003c   Code   RO          408    i.delay_01ms        motor.o
    0x080022ac   0x00000028   Code   RO          409    i.initMotorAgain    motor.o
    0x080022d4   0x0000005c   Code   RO          410    i.loadPulseW        motor.o
    0x08002330   0x00000290   Code   RO           22    i.main              main.o
    0x080025c0   0x00000014   Code   RO          244    i.motor_control     stm32f4xx_it.o
    0x080025d4   0x0000013c   Code   RO          245    i.motor_sampling    stm32f4xx_it.o
    0x08002710   0x0000004c   Code   RO         2333    i.sqrt              m_ws.l(sqrt.o)
    0x0800275c   0x00000004   PAD
    0x08002760   0x00000098   Data   RO         2324    .constdata          m_ws.l(atan.o)
    0x080027f8   0x00000020   Data   RO         2421    Region$$Table       anon$$obj.o


    Execution Region RW_IRAM1 (Base: 0x20000000, Size: 0x00000760, Max: 0x00020000, ABSOLUTE)

    Base Addr    Size         Type   Attr      Idx    E Section Name        Object

    0x20000000   0x00000001   Data   RW           27    .data               main.o
    0x20000001   0x00000007   PAD
    0x20000008   0x00000038   Data   RW           28    .data               main.o
    0x20000040   0x0000000c   Data   RW          468    .data               config.o
    0x2000004c   0x00000004   Data   RW          535    .data               uart.o
    0x20000050   0x00000010   Data   RW          830    .data               stm32f4xx_rcc.o
    0x20000060   0x00000004   Data   RW         2400    .data               mc_w.l(errno.o)
    0x20000064   0x00000004   PAD
    0x20000068   0x00000158   Zero   RW           23    .bss                main.o
    0x200001c0   0x000000b8   Zero   RW           24    .bss                main.o
    0x20000278   0x000000b8   Zero   RW           25    .bss                main.o
    0x20000330   0x00000030   Zero   RW          467    .bss                config.o
    0x20000360   0x00000400   Zero   RW            1    STACK               startup_stm32f40_41xxx.o


==============================================================================

Image component sizes


      Code (inc. data)   RO Data    RW Data    ZI Data      Debug   Object Name

       716         78          0         12         48       2704   config.o
      1822        222          0         57        712     247502   main.o
       120         18          0          0          0       1391   misc.o
       924         34          0          0          0       3898   motor.o
        36          8        392          0       1024        744   startup_stm32f40_41xxx.o
       284         32          0          0          0       4030   stm32f4xx_dma.o
       202          0          0          0          0       2495   stm32f4xx_gpio.o
       594         42          0          0          0     276288   stm32f4xx_it.o
       216         30          0         16          0       4099   stm32f4xx_rcc.o
       682         52          0          0          0      10226   stm32f4xx_tim.o
       350         10          0          0          0       4759   stm32f4xx_usart.o
       260         36          0          0          0       1285   system_stm32f4xx.o
       400         28          0          4          0       1654   uart.o

    ----------------------------------------------------------------------
      6626        590        424         96       1784     561075   Object Totals
         0          0         32          0          0          0   (incl. Generated)
        20          0          0          7          0          0   (incl. Padding)

    ----------------------------------------------------------------------

      Code (inc. data)   RO Data    RW Data    ZI Data      Debug   Library Member Name

       548         70        152          0          0        124   atan.o
        16          6          0          0          0         68   dunder.o
        40          0          0          0          0         68   fpclassify.o
       170          0          0          0          0         96   poly.o
        76          0          0          0          0         84   sqrt.o
         0          0          0          0          0          0   entry.o
         0          0          0          0          0          0   entry10a.o
         0          0          0          0          0          0   entry11a.o
         8          4          0          0          0          0   entry2.o
         4          0          0          0          0          0   entry5.o
         0          0          0          0          0          0   entry7b.o
         0          0          0          0          0          0   entry8b.o
         8          4          0          0          0          0   entry9a.o
        12          6          0          4          0         68   errno.o
        30          0          0          0          0          0   handlers.o
        36          8          0          0          0         68   init.o
         0          0          0          0          0          0   iusefp.o
        30          0          0          0          0         68   llshl.o
        36          0          0          0          0         68   llsshr.o
        32          0          0          0          0         68   llushr.o
        36          0          0          0          0         68   memcpya.o
        20          0          0          0          0         68   cfcmple.o
        20          0          0          0          0         68   cfrcmple.o
        56          0          0          0          0         88   d2f.o
       334          0          0          0          0        148   dadd.o
       222          0          0          0          0        100   ddiv.o
       190          0          0          0          0        176   depilogue.o
       228          0          0          0          0         96   dmul.o
        46          0          0          0          0         80   dscalb.o
       162          0          0          0          0        100   dsqrt.o
        38          0          0          0          0         68   f2d.o
       176          0          0          0          0        140   fadd.o
       128          0          0          0          0         88   fdiv.o
       108          0          0          0          0        168   fepilogue.o
        50          0          0          0          0         68   ffixi.o
        18          0          0          0          0         68   fflti.o
        42          0          0          0          0         92   ffltl.o
       108          0          0          0          0         76   fmul.o
        24          0          0          0          0         68   fscalb.o

    ----------------------------------------------------------------------
      3062         98        152          4          4       2608   Library Totals
        10          0          0          0          4          0   (incl. Padding)

    ----------------------------------------------------------------------

      Code (inc. data)   RO Data    RW Data    ZI Data      Debug   Library Name

       850         76        152          0          0        440   m_ws.l
       232         22          0          4          0        408   mc_w.l
      1970          0          0          0          0       1760   mf_w.l

    ----------------------------------------------------------------------
      3062         98        152          4          4       2608   Library Totals

    ----------------------------------------------------------------------

==============================================================================


      Code (inc. data)   RO Data    RW Data    ZI Data      Debug   

      9688        688        576        100       1788     558275   Grand Totals
      9688        688        576        100       1788     558275   ELF Image Totals
      9688        688        576        100          0          0   ROM Totals

==============================================================================

    Total RO  Size (Code + RO Data)                10264 (  10.02kB)
    Total RW  Size (RW Data + ZI Data)              1888 (   1.84kB)
    Total ROM Size (Code + RO Data + RW Data)      10364 (  10.12kB)

==============================================================================

